:10000000020890EF1FAC0670011E4C600A7D027C56
:08001000EFDCFEDDFC80EC22B8
:10080000E4F508C3E508940874809480501BAF0891
:10081000A8077401088002C333D8FCF4F5807FE890
:100820007E03120003050880DAE4F508C3E50894A6
:100830000774809480501BAF08A80774400880029A
:10084000C313D8FCF4F5807FE87E0312000305088B
:1008500080DAE4F508C3E50894077480948050C9F1
:10086000AF08A8077402088002C333D8FCF4F580EF
:0B0870007FE87E03120003050880DA19
:0C089000787FE4F6D8FD758108020800AE
:00000001FF
