:0300000002086B88
:10000B00020800C2A0120042D2A9D2ABD2AF80FE2E
:10001B0002001EC0E0C0D0758C38050BE50B7002DA
:10002B00050AB4880DE50AB41308750A00750B00B0
:10003B00B2A0D0D0D0E0325389F0438903758A380F
:0C004B00758C38C28DD28CC28FD28E22F0
:10080000C0E0C0D0758A380509E50970020508B452
:10081000E80EE508B403097508007509006380FF58
:05082000D0D0D0E03251
:0C086B00787FE4F6D8FD75810B02000ECA
:00000001FF
