:1000000002095CAD07E4FBEBC39408748094805054
:10001000237E007480A803088006CEA2E713CE13C7
:10002000D8F8FFEDF582EF558224FF92A7D2A6C241
:10003000A60B80D3228F091200D97FA012000312D1
:1000400000C3AF091200031200C31200D97FA1122E
:1000500000031200C31200658F0A7F011200CF1245
:1000600000E2AF0A22E4FFD2A7FEEEC39408748038
:1000700094805017D2A630A70DA80674800880027D
:10008000C313D8FC4207C2A60E80DF228F098D0A57
:100090001200D97FA01200031200C3AF091200039F
:1000A0001200C3AF0A1200031200C30200E2EF1FE6
:1000B000AC0670011E4C600A7D0C7CA9DCFEDDFCE8
:1000C00080EC22D2A7D2A6A2A7E433FFC2A622EFD9
:1000D00024FF92A7D2A6C2A622D2A7D2A6C2A7C2A6
:0900E000A622C2A7D2A6D2A722D3
:100800007D01E4FF12008C7F057E001200AE7D02A8
:100810007F0112008C7F057E001200AE7D047F02F6
:1008200012008C7F057E001200AE7D087F0312004F
:100830008C7F057E001200AE7D107F0412008C7F3D
:10084000057E001200AE7D207F0512008C7F057EA4
:10085000001200AE7D407F0612008C7F057E0012E4
:1008600000AE7D807F0712008C7F057E001200AEF7
:10087000E4F508C3E50894087480948050F2AF084A
:100880001200358F807F647E001200AE050880E381
:0C095C00787FE4F6D8FD75810A020800DF
:00000001FF
