:1000000002087AEF1FAC0670011E4C600A7D027C6C
:08001000EFDCFEDDFC80EC22B8
:10080000E4F5087580FE20902B7F147E0012000313
:100810003090FD7F147E001200030508E50864088F
:100820007002F508AF08A8077401088002C333D826
:10083000FCF4F5802091CF7F147E001200033091EC
:10084000FD7F147E00120003E5087005750807801F
:10085000021508AF08A8077401088002C333D8FC4A
:05086000F4F58080A109
:0C087A00787FE4F6D8FD758108020800C4
:00000001FF
