:10000000020800202208003F0006005B004F006647
:10001000006D007D0007007F006F0077007C0039D5
:10002000005E00790071000020222A00C000F90063
:10003000A400B000990092008200F80080009000B7
:1000400088008300C600A10086008E00FF00E4F552
:05005000B0F58080FE08
:10080000787FE4F6D8FD75814B02084702004EE47C
:1008100093A3F8E493A34003F68001F208DFF48089
:1008200029E493A3F85407240CC8C333C4540F44D9
:1008300020C8834004F456800146F6DFE4800B01B3
:1008400002040810204080900003E47E019360BC05
:10085000A3FF543F30E509541FFEE493A360010E4B
:10086000CF54C025E060A840B8E493A3FAE493A372
:10087000F8E493A3C8C582C8CAC583CAF0A3C8C593
:0C08800082C8CAC583CADFE9DEE780BE7B
:00000001FF
