:100000000209C6EF1FAC0670011E4C600A7D027C1F
:0F001000EFDCFEDDFC80EC221208008F8080F90F
:10080000E4F508F5097590FF5390FE2097127F05D7
:10081000FE1200032097097508007509010209A955
:10082000E590544070147F05FE120003E59054409B
:100830007008F5087509040209A9E59054207014A0
:100840007F05FE120003E59054207008F508750935
:10085000070209A9E590541070137F05FE120003EA
:10086000E59054107007F508F5090209A97590FF85
:100870005390FDE590548070147F05FE120003E54F
:100880009054807008F5087509020209A9E5905492
:100890004070147F05FE120003E59054407008F587
:1008A000087509050209A9E590542070147F05FE1A
:1008B000120003E59054207008F508750908020934
:1008C000A9E590541070137F05FE120003E59054C3
:1008D000107007F508F5090209A97590FF5390FB00
:1008E000E590548070147F05FE120003E59054805B
:1008F0007008F5087509030209A9E59054407014C1
:100900007F05FE120003E59054407008F508750954
:10091000060209A9E590542070137F05FE1200031A
:10092000E59054207007F508750909807CE590541E
:100930001070127F05FE120003E59054107006F54A
:1009400008F50980647590FF5390F7E59054807026
:10095000127F05FE120003E59054807006F508F53D
:10096000098046E590544070127F05FE120003E5B1
:100970009054407006F508F509802EE590542070DB
:10098000127F05FE120003E59054207006F508F56D
:10099000098016E590541070157F05FE120003E5DE
:1009A0009054107009F508F509E509F4FF227FFF5E
:0109B0002224
:0C09C600787FE4F6D8FD75810902001866
:00000001FF
